S0150000437275697365436F6E74726F6C2E73726563C3
S113000000C100001DC100001BC1000019C1000097
S113001017C1000015C1000014C1000011C1000087
S11300200FC100000DC100000BC1000009C1000098
S113003007C1000005C1000003C1000001C10000A8
S1130040FFC00000FDC00000FBC00000F9C00000BC
S1130050F7C00000F5C00000F3C00000F1C00000CC
S1130060EFC0000071C20000EBC00000E9C0000056
S1130070E7C00000E5C00000E3C00000E1C00000EC
S113008072C30000DDC00000DBC00000D9C0000066
S1130090D7C00000D5C00000D3C00000D1C000000C
S11300A0CFC00000CDC00000CBC00000C9C000001C
S11300B0C7C00000C5C00000C3C00000C1C000002C
S11300C0BFC00000BDC00000BBC00000B9C000003C
S11300D0B7C00000B5C00000B3C00000B1C000004C
S11300E0AFC00000C902D202D902DD02E102E70278
S11300F0ED020B03290347039E039E039E039E0305
S11301009E039E039E03980300407A10F35A00A0B6
S1130110724E18090010A5D4E80000E876481700CC
S113012000E40B54020000CA9A3B000000E1F5050C
S1130130000080969800000040420F000000A08656
S113014001000000102700000000E8030000000088
S11301506400000000000A0000000000010000002C
S113016000002C76D888DC674F0823DFC1DFAE5946
S1130170E1B1B796E5E3E453C63AE651997696E8D9
S1130180E6C28426EB898C9B62ED407C6FFCEFBC5D
S11301909C9F40F2BAA56FA5F490055A2AF75C9388
S11301A06B6CF9676DC11BFCE0E40D47FEF520E6BE
S11301B0B500D0ED902E0300943577050080841EA1
S11301C0080000204E0A000000C80C333333330FFC
S11301D0986E12831141EF8D2114893BE65516CF99
S11301E0FEE6DB18D1844B381BF77C1D901DA4BBA5
S11301F0E424203284725E228100C9F124ECA1E55A
S11302003D2711241FBECFEFD1E2DEBFCDBF00E0FA
S11302100CBF12E0A0E0B2E0E8EAF0E100E00BBFBE
S113022002C007900D92AA32B107D9F722E0AAE2E0
S1130230B2E001C01D92A834B207E1F71ED132C763
S1130240DFCE1F920F920FB60F9211248F939F93BC
S1130250AF93BF9380912E0290912F02A091300210
S1130260B09131020196A11DB11D80932E0290938D
S11302702F02A0933002B0933102BF91AF919F91AE
S11302808F910F900FBE0F901F9018954F925F9211
S11302906F927F928F929F92AF92BF92CF92DF9292
S11302A0EF92FF92CF93DF938617970708F4BC0170
S11302B0EC01C61BD70B80912C0290912D028C0F60
S11302C09D1F8B3F910528F490932D0280932C025F
S11302D004C010922D0210922C02C0900802D090FB
S11302E00902E0900A02F0900B0240900002509044
S11302F001026090020270900302809004029090C8
S11303000502A0900602B0900702BE0180E090E0D2
S11303102AD3A7019601B5D36B017C0180912A02EF
S113032090912B02BE01681B790B80E090E01BD3F7
S1130330A3019201A6D39B01AC01C701B6017ED2F1
S11303406B017C0160912C0270912D0280E090E0A1
S11303500AD3A501940195D39B01AC01C701B60151
S11303606DD2D0D2D0932B02C0932A02CB01992311
S113037014F480E090E0DF91CF91FF90EF90DF9054
S1130380CF90BF90AF909F908F907F906F905F9031
S11303904F90089588E080936A0080E28DBB0895B1
S11303A089E09DE3909399008093980082E0809384
S11303B07100109290008DE080939100089520E8E0
S11303C03EE3309387002093860020910C02309105
S11303D00D02309389002093880020910C02309103
S11303E00D0230938B0020938A00813459F482E803
S11303F08093800089E18093810084B1806684B910
S11304002E98089582E28093800089E18093810090
S113041084B1806684B92D980895809180008823E2
S11304204CF480910C0290910D029093890080937A
S11304308800089580910C0290910D0290938B0096
S113044080938A000895ECE7F0E0808180648083E3
S1130450EAE7F0E0808187688083089587E690E08A
S11304609093C5008093C400E1ECF0E0808188693A
S1130470808386E08093C2000895E5DFEFDF81E4A6
S11304809EDF8EDF87DF789480913D02823019F001
S1130490843091F0F9CF80910C0290910D02885133
S11304A09C4F90930D0280930C02B7DF80913D0224
S11304B08D7F80933D02E8CF80910C0290910D02D4
S11304C0885E934090930D0280930C02A6DF809186
S11304D03D028B7F80933D02D7CFE0ECF0E090812A
S11304E095FFFDCF8093C6000895E0ECF0E0808195
S11304F08823ECF78091C60008951F93CF93DF9370
S1130500F4DF182FF2DFD82FF0DFC82FEEDF282F0B
S1130510612F7D2F8C2F922FDF91CF911F91089502
S11305200F931F93CF93DF93062F662341F0C82FB9
S1130530D92F10E08991D1DF1F5F1013FBCFDF911A
S1130540CF911F910F9108951F920F920FB60F92A2
S113055011240BB60F920F931F932F933F934F9336
S11305605F936F937F938F939F93AF93BF93EF9317
S1130570FF938091C600809332028091320290E012
S1130580FC01F097E231F10508F0D8C0EE58FF4FB6
S1130590DBC260E18EE092E0C3DF8AE09EDF8DE0A3
S11305A09CDFCCC090913D0281E0892780933D027D
S11305B0C5C081E404DF31DFC1C082E400DF2DDF88
S11305C0BDC080913D02826080933D02B7C080919E
S11305D03D02846080933D02B1C08FDF60930802C6
S11305E07093090280930A0290930B0260910802AF
S11305F07091090280910A0290910B0203E312E0C8
S113060025E043E0A7D26AE0C8018ADF8AE065DF1B
S11306108DE063DF93C071DF609304027093050281
S11306208093060290930702609104027091050280
S1130630809106029091070203E312E025E043E073
S113064089D26AE0C8016CDF8AE047DF8DE045DFCC
S113065075C053DF6093000270930102809302021D
S11306609093030260910002709101028091020252
S11306709091030203E312E025E043E06BD26AE0C9
S1130680C8014EDF8AE029DF8DE027DF57C064E030
S11306908EE192E045DF8AE020DF8DE01EDF60918D
S11306A008027091090280910A0290910B0203E3FF
S11306B012E025E043E04ED26AE0C80131DF8AE06F
S11306C00CDF8DE00ADF64E082E292E029DF8AE059
S11306D004DF8DE002DF60910402709105028091D5
S11306E006029091070225E043E034D26AE0C80193
S11306F017DF8AE0F2DE8DE0F0DE64E086E292E06D
S11307000FDF8AE0EADE8DE0E8DE6091000270919E
S11307100102809102029091030225E043E01AD283
S11307206AE0C801FDDE8AE0D8DE8DE0D6DE06C0D0
S113073090913D0280E2892780933D02FF91EF91E1
S1130740BF91AF919F918F917F916F915F914F91E5
S11307503F912F911F910F910F900BBE0F900FBEE1
S11307600F901F9018951F920F920FB60F9211249D
S11307700BB60F922F933F934F935F936F937F9397
S11307808F939F93AF93BF93EF93FF9380913D0219
S113079080FF14C080912E0290912F02A09130020C
S11307A0B09131024AE06EE372E0F4D16AE08EE384
S11307B092E0B6DE8AE091DE8DE08FDE80913D022C
S11307C085FF20C060912E0270912F02809130022B
S11307D0909131028AE190E059DD90930D0280936B
S11307E00C0280910C0290910D024AE06EE372E0DB
S11307F0DBD16AE08EE392E093DE8AE06EDE8DE088
S11308006CDE0BDE10922E0210922F021092300238
S113081010923102FF91EF91BF91AF919F918F910F
S11308207F916F915F914F913F912F910F900BBEEC
S11308300F900FBE0F901F9018955058BB27AA27F2
S11308400ED0E5C0D6D030F0DBD020F031F49F3F9D
S113085011F41EF4CBC00EF4E095E7FBC1C0E92F00
S1130860E7D080F3BA17620773078407950718F077
S113087071F49EF5FFC00EF4E0950B2EBA2FA02D57
S11308800B01B90190010C01CA01A0011124FF2739
S1130890591B99F0593F50F4503E68F11A16F04034
S11308A0A22F232F342F4427585FF3CF4695379533
S11308B02795A795F0405395C9F77EF41F16BA0BF8
S11308C0620B730B840BBAF09150A1F0FF0FBB1FA6
S11308D0661F771F881FC2F70EC0BA0F621F731FEF
S11308E0841F48F4879577956795B795F7959E3F4C
S11308F008F0B3CF9395880F08F09927EE0F9795DA
S11309008795089504D06894B111B5C0089598D01E
S113091088F09F5790F0B92F9927B751A0F0D1F0E4
S1130920660F771F881F991F1AF0BA95C9F712C06E
S1130930B13081F09FD0B1E008959CC0672F782F2B
S11309408827B85F39F0B93FCCF3869577956795DA
S1130950B395D9F73EF490958095709561957F4F46
S11309608F4F9F4F0895E89409C097FB3EF49095EC
S11309708095709561957F4F8F4F9F4F9923A9F074
S1130980F92F96E9BB279395F69587957795679503
S1130990B795F111F8CFFAF4BB0F11F460FF1BC047
S11309A06F5F7F4F8F4F9F4F16C0882311F096E9DA
S11309B011C0772321F09EE8872F762F05C0662388
S11309C071F096E8862F70E060E02AF09A95660F41
S11309D0771F881FDAF7880F9695879597F90895FA
S11309E097F99F6780E870E060E008959FEF80ECDE
S11309F0089500240A941616170618060906089581
S1130A0000240A9412161306140605060895092EE6
S1130A100394000C11F4882352F0BB0F40F4BF2B55
S1130A2011F460FF04C06F5F7F4F8F4F9F4F089595
S1130A3057FD9058440F551F59F05F3F71F047958B
S1130A40880F97FB991F61F09F3F79F08795089570
S1130A50121613061406551FF2CF4695F1DF08C08F
S1130A60161617061806991FF1CF869571056105AC
S1130A7008940895E894BB2766277727CB0197F954
S1130A8008950BD0C4CFB5DF28F0BADF18F0952352
S1130A9009F0A6CFABCF1124EECFCADFA0F3959F08
S1130AA0D1F3950F50E0551F629FF001729FBB2751
S1130AB0F00DB11D639FAA27F00DB11DAA1F649FFD
S1130AC06627B00DA11D661F829F2227B00DA11DB0
S1130AD0621F739FB00DA11D621F839FA00D611D36
S1130AE0221F749F3327A00D611D231F849F600D57
S1130AF0211D822F762F6A2F11249F5750408AF090
S1130B00E1F088234AF0EE0FFF1FBB1F661F771F1B
S1130B10881F91505040A9F79E3F510570F060CF57
S1130B20AACF5F3FECF3983EDCF386957795679503
S1130B30B795F795E7959F5FC1F7FE2B880F911D39
S1130B409695879597F90895EE0FFF1F0590F491F8
S1130B50E02D1994EF920F931F93CF93DF93E80145
S1130B6047FF02C034E101C034E0E42FFF27E7FD72
S1130B70F095F7FF03C0F195E195F109E32E022FFB
S1130B802E2FAE012AD0CE01DF91CF911F910F916C
S1130B90EF900895BB274A3031F4992322F4BDE243
S1130BA0909581959F4F01C0BB27FB015527AA272C
S1130BB0880F991FAA1FA41710F0A41B83955051E6
S1130BC0B9F7A05DAA3308F0A95DA193009779F75E
S1130BD0B111B1931192CB0155C26F927F929F9242
S1130BE0AF92BF92CF92DF92EF92FF920F931F9337
S1130BF0CF93DF93CDB7DEB729970FB6F894DEBF56
S1130C000FBECDBF6A01B22E102F0C3320F4FF2487
S1130C10F394F00E02C04CE3F42E0F2D27E0AE0146
S1130C204F5F5F4F57D17981272F2970213031F0E1
S1130C30E1FC06C0E0FC06C060E005C06DE203C054
S1130C406BE201C060E2AE2DA07173FF36C0662373
S1130C5011F084E001C083E08B1510F4B81A01C0D0
S1130C60B12CA1110BC0F6018B2D90E2882319F051
S1130C7091938150FBCFCB0CD11CB12C662331F066
S1130C80F601608396012F5F3F4F6901C601039609
S1130C90E2FE05C02EE4F601208331E404C02EE612
S1130CA0F601208331E631832283FC012B2D30E2CF
S1130CB02223F1F131932150FBCF72FF40C0662310
S1130CC011F084E001C083E08B1510F4B81A01C060
S1130CD0B12CA1110BC0F6018B2D90E2882319F0E1
S1130CE091938150FBCFCB0CD11CB12C662331F0F6
S1130CF0F601608396012F5F3F4F6901C601039699
S1130D00E2FE07C029E4F60120832EE4218326E4D1
S1130D1006C029E6F60120832EE6218326E62283F7
S1130D20FC012B2D30E2222319F031932150FBCF0B
S1130D30FC01EB0DF11D10828EEF9FEFB7C0B1E007
S1130D40611101C0B0E04B2F50E01816190624F4CD
S1130D509C012F5F3F4F02C021E030E0240F351F7C
S1130D60112329F0412F50E04F5F5F4F02C040E054
S1130D7050E0420F531F2B2D30E04217530714F459
S1130D80B41A01C0B12C2E2D287159F4F6012B2D63
S1130D9030E2222319F031932150FBCFCB0CD11C2C
S1130DA0B12CBB2331F0F601608396012F5F3F4FD6
S1130DB06901A1110BC0F6012B2D30E3222319F098
S1130DC031932150FBCFCB0CD11CB12CF80E0A81EE
S1130DD0372F3071A32E74FF03C0013309F4FA9442
S1130DE01F142CF42F2D293018F028E001C021E025
S1130DF0682F392F97FF02C060E030E0462F532F51
S1130E00612C712C3EE2932EBC01621B71099B0183
S1130E10DC01A41BB50BE1E0F0E0EC0FFD1FAE0F0D
S1130E20BF1FE12EF12CF194E194F1084F3FFFEF45
S1130E305F0731F4F6019082B6016F5F7F4F6B015B
S1130E40841795074CF02417350734F4BD01660D5B
S1130E50771DFB01118101C010E341505109FFEFDF
S1130E606F1A7F0AB6016F5F7F4F4E155F0524F03E
S1130E70F60110836B01DACF4817590739F40633AA
S1130E8020F4053319F4A11001C011E3F601108315
S1130E90FB018B2D90E2882319F091938150FBCFB5
S1130EA0FB01EB0DF11D108280E090E029960FB656
S1130EB0F894DEBF0FBECDBFDF91CF911F910F918C
S1130EC0FF90EF90DF90CF90BF90AF909F907F9076
S1130ED06F900895283008F027E03327DA01990F3E
S1130EE0311D87FD916000966105710539F432600A
S1130EF02E5F3D9330E32A95E1F708959F3F30F04C
S1130F0080387105610509F03C5F3C5F3D93913089
S1130F1008F08068911DDF93CF931F930F93FF9286
S1130F20EF92192F987F9695E92F96959695E90F4C
S1130F30FF27EE59FE4F99273327EE24FF24A701FC
S1130F40E70105900894079428F4360FE71EF81E6D
S1130F50491F511D660F771F881F991F0694A1F71B
S1130F600590079428F4E70EF81E491F561FC11D6B
S1130F70770F881F991F661F0694A1F705900794A1
S1130F8028F4F80E491F561FC71FD11D880F991F3B
S1130F90661F771F0694A1F70590079420F4490F64
S1130FA0561FC71FD81F990F661F771F881F0694E7
S1130FB0A9F784911095177041F0D695C795579568
S1130FC04795F794E7941A95C1F7E8E0F1E068943F
S1130FD01590159135916591959105907FE27395E2
S1130FE0E118F10A430B560BC90BD009C0F7E10C09
S1130FF0F11E431F561FC91FD01D7EF4703311F418
S11310008A95E6CFE894015030F0080F0AF40027DF
S1131010021708F4202F2395022F7A3328F079E35E
S11310207D932A95E9F710C07D932A9589F6069455
S113103097956795379517951794E118F10A430B1F
S1131040560BC90BD00998F023957E9173957A338A
S113105008F070E37C932013B8F77E9170617D9360
S113106030F0839571E37D9370E32A95E1F71124C1
S1131070EF90FF900F911F91CF91DF91992787FDFA
S113108090950895DC01FC01672F71917723E1F7B6
S1131090329704C07C916D9370836291AE17BF0741
S10B10A0C8F30895F894FFCF92
S11310A80000A0410000A04100004843401F4372D3
S11310B875697365436F6E74726F6C763100703A3C
S10D10C82000693A2000643A200079
S9030000FC
