S0170000437275697365436F6E74726F6C56322E7372656339
S113000012C02DC02BC02AC029C028C027C026C0BA
S113001025C024C023C022C021C020C062C01EC08D
S11300201DC01CC01BC011241FBECFE5D1E0DEBF24
S1130030CDBF10E0A0E6B0E0E8EBF1E002C005902F
S11300400D92A236B107D9F720E0A2E6B0E001C0D4
S11300501D92A536B207E1F739D0ACC0D1CF1F92BB
S11300600F920FB60F9211248F939F938091620089
S113007090916300019690936300809362009F9136
S11300808F910F900FBE0F901F90189583E085BF3E
S113009080E48BBF08958EE483BB81E085BB85E05B
S11300A083BF89B7806189BF08958FEF8BBD80E8D6
S11300B08ABD8DBD82E08ABB87E287BBC09A10BE31
S11300C08CE08FBD89E087BD059A0895EEDFE3DFFC
S11300D0DDDF7894FFCF80916000909161008ABD4C
S11300E008951F920F920FB60F9211242F933F93EE
S11300F04F935F936F937F938F939F93AF93BF932C
S1130100EF93FF93809164008F5F809364008091EC
S113011064008436F0F11092640080916200909142
S113012063004997B0F48091600090916100059656
S113013090936100809360008091600090916100D1
S11301408A3F910530F08FEF90E0909361008093A7
S1130150600080916200909163004C97A8F08091B8
S11301606000909161000597909361008093600016
S113017080916000909161000B9730F48AE090E0E8
S11301809093610080936000A6DF10926300109248
S11301906200FF91EF91BF91AF919F918F917F91F9
S11301A06F915F914F913F912F910F900FBE0F90E0
S10B01B01F901895F894FFCF8D
S10501B88000C1
S9030000FC
